{
  "contractName": "SimpleStorage",
  "abi": [
    {
      "inputs": [],
      "stateMutability": "nonpayable",
      "type": "constructor"
    },
    {
      "inputs": [],
      "name": "read",
      "outputs": [
        {
          "internalType": "string",
          "name": "",
          "type": "string"
        }
      ],
      "stateMutability": "view",
      "type": "function",
      "constant": true
    },
    {
      "inputs": [],
      "name": "readfile",
      "outputs": [
        {
          "internalType": "string",
          "name": "",
          "type": "string"
        }
      ],
      "stateMutability": "view",
      "type": "function",
      "constant": true
    },
    {
      "inputs": [
        {
          "internalType": "string",
          "name": "newValue",
          "type": "string"
        },
        {
          "internalType": "string",
          "name": "newFile",
          "type": "string"
        }
      ],
      "name": "write",
      "outputs": [],
      "stateMutability": "nonpayable",
      "type": "function"
    }
  ],
  "bytecode": "0x608060405234801561001057600080fd5b506040518060600160405280603b815260200161074c603b91396000908051906020019061003f929190610091565b506040518060400160405280600981526020017f33383539382e6a706700000000000000000000000000000000000000000000008152506001908051906020019061008b929190610091565b50610194565b82805461009d90610163565b90600052602060002090601f0160209004810192826100bf5760008555610106565b82601f106100d857805160ff1916838001178555610106565b82800160010185558215610106579182015b828111156101055782518255916020019190600101906100ea565b5b5090506101139190610117565b5090565b5b80821115610130576000816000905550600101610118565b5090565b7f4e487b7100000000000000000000000000000000000000000000000000000000600052602260045260246000fd5b6000600282049050600182168061017b57607f821691505b60208210810361018e5761018d610134565b5b50919050565b6105a9806101a36000396000f3fe608060405234801561001057600080fd5b50600436106100415760003560e01c80631e7c0197146100465780634ab7b2cc1461006257806357de26a414610080575b600080fd5b610060600480360381019061005b91906103f1565b61009e565b005b61006a6100d0565b60405161007791906104f1565b60405180910390f35b610088610162565b60405161009591906104f1565b60405180910390f35b80600190805190602001906100b49291906101f4565b5081600090805190602001906100cb9291906101f4565b505050565b6060600180546100df90610542565b80601f016020809104026020016040519081016040528092919081815260200182805461010b90610542565b80156101585780601f1061012d57610100808354040283529160200191610158565b820191906000526020600020905b81548152906001019060200180831161013b57829003601f168201915b5050505050905090565b60606000805461017190610542565b80601f016020809104026020016040519081016040528092919081815260200182805461019d90610542565b80156101ea5780601f106101bf576101008083540402835291602001916101ea565b820191906000526020600020905b8154815290600101906020018083116101cd57829003601f168201915b5050505050905090565b82805461020090610542565b90600052602060002090601f0160209004810192826102225760008555610269565b82601f1061023b57805160ff1916838001178555610269565b82800160010185558215610269579182015b8281111561026857825182559160200191906001019061024d565b5b509050610276919061027a565b5090565b5b8082111561029357600081600090555060010161027b565b5090565b6000604051905090565b600080fd5b600080fd5b600080fd5b600080fd5b6000601f19601f8301169050919050565b7f4e487b7100000000000000000000000000000000000000000000000000000000600052604160045260246000fd5b6102fe826102b5565b810181811067ffffffffffffffff8211171561031d5761031c6102c6565b5b80604052505050565b6000610330610297565b905061033c82826102f5565b919050565b600067ffffffffffffffff82111561035c5761035b6102c6565b5b610365826102b5565b9050602081019050919050565b82818337600083830152505050565b600061039461038f84610341565b610326565b9050828152602081018484840111156103b0576103af6102b0565b5b6103bb848285610372565b509392505050565b600082601f8301126103d8576103d76102ab565b5b81356103e8848260208601610381565b91505092915050565b60008060408385031215610408576104076102a1565b5b600083013567ffffffffffffffff811115610426576104256102a6565b5b610432858286016103c3565b925050602083013567ffffffffffffffff811115610453576104526102a6565b5b61045f858286016103c3565b9150509250929050565b600081519050919050565b600082825260208201905092915050565b60005b838110156104a3578082015181840152602081019050610488565b838111156104b2576000848401525b50505050565b60006104c382610469565b6104cd8185610474565b93506104dd818560208601610485565b6104e6816102b5565b840191505092915050565b6000602082019050818103600083015261050b81846104b8565b905092915050565b7f4e487b7100000000000000000000000000000000000000000000000000000000600052602260045260246000fd5b6000600282049050600182168061055a57607f821691505b60208210810361056d5761056c610513565b5b5091905056fea2646970667358221220c0bda33b4a3c49e49fc084d15321697e502e158f51643ade30c34a7e37fb1b6964736f6c634300080e00336261667962656962626b35706b347a743576356c677a6a796a736d7737687773356164726f346f76346a73716c7370766b7a726376667a65636965",
  "immutableReferences": {},
  "source": "// SPDX-License-Identifier: MIT\npragma solidity >=0.4.22 <0.9.0;\n\ncontract SimpleStorage {\n  \n  string value;\n  string file;\n  constructor() {\n  value = 'bafybeibbk5pk4zt5v5lgzjyjsmw7hws5adro4ov4jsqlspvkzrcvfzecie';\n  file = '38598.jpg';\n  }\n  \n  function read() public view returns (string memory) {\n    return value;\n  }\n\n  function readfile() public view returns (string memory) {\n    return file;\n  }\n\n  function write(string memory newValue, string memory newFile) public {\n    file = newFile;\n    value = newValue;\n  }\n}\n",
  "sourcePath": "C:\\Users\\Lenovo\\Desktop\\deployable_projects\\Dcentr_Storage\\truffle\\contracts\\SimpleStorage.sol",
  "compiler": {
    "name": "solc",
    "version": "0.8.14+commit.80d49f37.Emscripten.clang"
  },
  "schemaVersion": "3.4.11",
  "updatedAt": "2022-12-24T12:55:52.304Z",
  "networkType": "ethereum",
  "devdoc": {
    "kind": "dev",
    "methods": {},
    "version": 1
  },
  "userdoc": {
    "kind": "user",
    "methods": {},
    "version": 1
  }
}